S0100000786D6173323031372E7372656391
S1130000380500202D0700002907000029070000FB
S113001000000000000000000000000000000000DC
S1130020000000000000000000000000290700009C
S11300300000000000000000290700002108000063
S113004029070000290700002907000029070000EC
S1130050290700002907000029070000000000000C
S113006029070000290700002907000029070000CC
S113007029070000290700002907000029070000BC
S113008029070000290700002907000010B5064CC5
S11300902378002B07D1054B002B02D0044800E045
S11300A000BF0123237010BDE00000200000000009
S11300B0A4130000084B10B5002B03D007490848CF
S11300C000E000BF07480368002B00D110BD064BB9
S11300D0002BFBD09847F9E700000000E400002063
S11300E0A4130000A4130000000000000C4B1B68C4
S11300F0002B06D1EFF31083002B07D00022094B0D
S11301001A70074A136801331360704772B6BFF35D
S11301105F8F0022044B1A700132024B1A70F0E711
S1130120FC0000200001002000000020084B1A6899
S1130130013A1A601B68002B09D1064B1B78002B6F
S113014005D00122044B1A70BFF35F8F62B670476B
S1130150FC0000200001002000000020F0B583B066
S113016001AC012565700027A770257021000920C6
S1130170064EB04780229200054B5A612770657085
S113018021001920B04703B0F0BDC046950100001E
S11301900044004100B583B001AB80221A700A7894
S11301A05A704A789A708A78DA701900014B984725
S11301B003B000BDC906000010B5082803D88000AC
S11301C01C4B1B589F46002032E01B4B18692FE044
S11301D01A4B1B6A9B059B0F1948D84028E0164B05
S11301E0586925E0144B1B6800209B0720D5134950
S11301F01022CB681A42FCD00F4B1A6824231340F8
S1130200042B01D00F4813E000200F4B98470A4BF2
S11302109B681B041B0C58430AE05023074AD35C19
S113022000205B0704D5044BD86801E0802000025D
S113023010BDC04614130000040100200008004053
S113024000127A00006CDC02ED05000070B50C4968
S11302500B6A04788578407801221040800140269A
S1130260B34303432A40D201802083431343032230
S1130270224012020348034013430B6270BDC04680
S113028000080040FFFCFFFF082803D88000254B2E
S11302901B589F46172044E0234A136A02210B434C
S11302A0136200203DE0204A936902210B439361CD
S11302B0002036E01C4A138A02210B4313820020DB
S11302C02FE0194A938A02210B439382002028E0ED
S11302D016490B68022213430B60134B9A841900CE
S11302E00E32CB681A42FCD0104A91680E4BD96288
S11302F052689A6200229A8419001032CB681A421A
S1130300FCD00A4B1B689BB2074A9384002008E088
S1130310054944228B5C022003438B54002000E0F7
S1130320002070473813000000080040040100203A
S113033030B585B0C222D2001A4B9A601A4A53686B
S11303401E218B43536001236A4613700024174D0A
S1130350E0B26946A8470134182CF9D103A8002457
S11303604470012585700470114B98470620114B89
S11303709847114B9847114B1C725C729C72DC724B
S113038001956B465C7006236A46137014725472AE
S1130390694600200A4B984700200A4B984705B04D
S11303A030BDC0460008004000400041D1050000B7
S11303B04D02000089020000C9030000000400404F
S11303C0ED030000A5040000064A936908210B43CD
S11303D093610122044B1A7019000B781342FCD16B
S11303E07047C04600040040000C004070B5060091
S11303F004000D782D0205434B78002B02D0802396
S1130400DB021D434B7A002B02D080231B031D43C8
S11304104868012810D9431E184234D1022830D923
S11304200223002201325B009842FBD812023243BD
S1130430140080235B031D430B7A002B02D080231E
S11304409B031D43134A53785BB2002BFBDB124B17
S11304509847124B1E700F4A53785BB2002BFBDB9C
S11304600C4B9C601A0053785BB2002BFBDB094AEF
S11304705368802149020B401D435560084B98473F
S113048070BD0022D2E70402344380239B021D4343
S1130490D2E7C046000C0040ED000000080C00400C
S11304A02D01000010B504000B4A53785BB2002BF9
S11304B0FBDB0A4B98470A4B1C70074A53785BB224
S11304C0002BFBDB044A516880235B020B4353601F
S11304D0044B984710BDC046000C0040ED000000DE
S11304E0040C00402D01000070B504001A4A537832
S11304F05BB2002BFBDB194B9847194B1C70164A57
S113050053785BB2002BFBDB134E7068C004C00E43
S1130510144B98470500124B1C707668F602F60FD0
S1130520114B1C700C4A53785BB2002BFBDB0A4B5B
S11305309C682402240C0D4B9847002E07D1012CF3
S113054007D9210028000A4B9847050001E001342F
S1130550E540280070BDC046000C0040ED000000DE
S1130560040C0040B9010000080C00402D010000FB
S11305701D0E000010B504000F4B98470F4B1C7064
S11305800F4A53881B05180F53880E490B4053809C
S113059053880D490B40538011008022D2014B88AF
S11305A01342FCD106494A88030206480240134319
S11305B04B80064B984710BDED000000020C004034
S11305C0000C0040FFF0FFFFFFBFFFFF2D01000004
S11305D010B50C7824020443024B9847A4B2024B92
S11305E05C8010BD75050000000C004010B50400CF
S11305F0064B9847064B1C70064B5C882405240F59
S1130600054B98472000054B984710BDED000000AE
S1130610020C0040000C00402D010000E904000021
S113062030B5D378002B35D11378802B29D01B0615
S113063080246402234354780225AC4306D1947881
S1130640002C20D18024A402234341605478013C2F
S1130650012C1CD90D042D0CA024E4052C431C43AF
S113066084620D0CD02424062C431C438462D47869
S1130670002C22D15B031CD59378012B1ED0416141
S113068017E00023D7E7C024E4022343DDE70D4C41
S11306902340DFE741600C04240CA023DB05234343
S11306A083620C0CD0231B0623438362D378002B74
S11306B003D15378013B012B02D930BD8161F8E7A6
S11306C08160FAE7FFFFFBFF10B50A00C1090023B0
S11306D0002904D14309DB0105498C4663441F24E6
S11306E02040012181401800024B984710BDC046AC
S11306F000440041210600007047000010B5054B7E
S11307009847054B9847054B9847054B9847054B29
S1130710984710BD310300005D010000F906000098
S1130720F9060000F9060000FEE7000010B5264AAD
S1130730264B9A4211D01A00254B9A420DD2254AD3
S113074003339B1A9B0801339B0000221F481E4958
S11307508C58845004329A42FAD11F4A1F4B9A4251
S11307600AD2D3431D495B1803218B4304339B18DE
S1130770002102C29342FCD1194AFF21194B8B4339
S11307809360FD3990235B00174AD150174B9A7B35
S11307902E318A4320210A439A739A7B0C218A437F
S11307A008210A439A739A7B03218A4302210A434C
S11307B09A730F4A536880210B4353600D4B98473B
S11307C00D4B9847FEE7C046A4130000000000202C
S11307D0E000002004000020E0000020340100209C
S11307E000ED00E0000000000070004100480041FE
S11307F00040004109110000D90800000300064A26
S11308001268002A04D0044A1068C31813607047A1
S11308100249014A1160F6E71C0100203805002056
S113082070B5164B1B789B00154A9B58154A1360EC
S1130830154A1068411C11609847144B1868002829
S11308401BDD0E4B1C78104B1D68114B002203E07E
S113085001320C33824210D01978A142F8D1596880
S1130860A942F5DC53009A189200094B9A18127A9F
S1130870024B1A700022044B1A6070BD2400002041
S1130880080000202C01002020010020040000208A
S1130890280000200F4B802212065A618022520247
S11308A05A61802212045A618022D2055A61802240
S11308B0D2005A618022D2035A61802212055A6101
S11308C0802212015A61802252045A6180229202CB
S11308D05A6170470044004130B583B01F4B9847BC
S11308E000201F4B98478308013B1E4A93420DD8B2
S11308F01D4A53601D48036A1B021B0AC0210906D6
S11309000B430362002393600733136001AC01239C
S113091063700022A270237021001F20144DA84789
S113092021001020A84721001720A84721001E20DD
S1130930A84721000A20A84721001620A847210023
S11309401B20A84721000B20A84721001820A847F6
S113095021001120A847074B9847FEE7FD06000039
S1130960E9040000FFFFFF0010E000E000ED00E0FC
S1130970950100009508000010B500281FD0214BF8
S113098080221206DA6180225202DA618022120485
S1130990DA618022D205DA618022D200DA61802213
S11309A0D203DA6180221205DA6180221201DA614F
S11309B080225204DA6180229202DA6110BD124B65
S11309C09847104B802212069A61802252029A6143
S11309D0802212045A618022D2055A618022D200F8
S11309E05A618022D2039A61802212059A61802280
S11309F012019A61802252045A61802292025A6141
S1130A00BDE7C046004400419508000010B5002829
S1130A1004D080221206034BDA6110BD024B9847C2
S1130A20F7E7C046004400419508000010B50028CF
S1130A301FD0214B80221206DA6180225202DA6131
S1130A4080221204DA618022D205DA618022D20087
S1130A50DA618022D203DA6180221205DA6180220F
S1130A601201DA6180225204DA6180229202DA6190
S1130A7010BD124B9847104B802212069A618022B7
S1130A8052025A61802212045A618022D2059A616C
S1130A908022D2005A618022D2035A618022120538
S1130AA09A61802212015A61802252045A61802282
S1130AB092029A61BDE7C0460044004195080000D7
S1130AC010B50400184B984780221206174B9A6100
S1130AD003212000164B984700290AD1134B80228A
S1130AE012049A618022D2039A61802252049A618C
S1130AF010BD01290AD10D4B8022D2059A618022B2
S1130B0012059A61802292029A61F1E70229EFD1DB
S1130B10064B802252029A618022D2009A6180227E
S1130B2012019A61E4E7C0469508000000440041C0
S1130B30FD10000010B5574B9847574B9847C20F0C
S1130B40801801231840904200D170E080221206E0
S1130B50524B9A61504B9847C20F8018012318409A
S1130B60904269D0802252024C4B9A614A4B98477A
S1130B70C20F801801231840904262D080221204D0
S1130B80464B9A61444B9847C20F80180123184082
S1130B9090425BD08022D205404B9A613E4B9847ED
S1130BA0C20F801801231840904254D08022D200F2
S1130BB03A4B9A61384B9847C20F8018012318406A
S1130BC090424DD08022D203344B9A61324B9847E5
S1130BD0C20F801801231840904246D0802212058B
S1130BE02E4B9A612C4B9847C20F80180123184052
S1130BF090423FD080221201284B9A61264B98479D
S1130C00C20F801801231840904238D08022520429
S1130C10224B9A61204B9847C20F80180123184039
S1130C20904231D1802292021C4B5A6110BD802225
S1130C3012061A4B5A618DE780225202174B5A61F1
S1130C4094E780221204154B5A619BE78022D20557
S1130C50124B5A61A2E78022D200104B5A61A9E7D5
S1130C608022D2030D4B5A61B0E7802212050B4B50
S1130C705A61B7E780221201084B5A61BEE780220D
S1130C805204064B5A61C5E780229202034B9A61D3
S1130C90CCE7C04695080000511100000044004113
S1130CA010B5214B9847214B98470A21204B984770
S1130CB0092935D889001F4B5B589F4680221206AC
S1130CC01D4B9A6110BD802252021B4B9A61F9E7B9
S1130CD080221204184B9A61F4E78022D205164B45
S1130CE09A61EFE78022D200134B9A61EAE78022EF
S1130CF0D203114B9A61E5E7802212050E4B9A61EB
S1130D00E0E7802212010C4B9A61DBE78022520457
S1130D10094B9A61D6E780229202074B9A61D1E788
S1130D20014B9847CEE7C0469508000051110000DA
S1130D30FD1000005C130000004400410F4B8022B2
S1130D4012069A61802252029A61802212049A61E8
S1130D508022D2059A618022D2009A618022D20335
S1130D609A61802212059A61802212019A6180227E
S1130D7052049A61802292029A61704700440041B1
S1130D8010B50400224B98470A212000214B9847B4
S1130D90002916D1802212061F4B5A61032916D14D
S1130DA08022D2051C4B5A61062916D180221205D5
S1130DB0194B5A61092903D180229202164B5A61B8
S1130DC010BD012910D180225202134B5A6104290B
S1130DD010D18022D200104B5A61072910D18022F1
S1130DE012010D4B5A61EBE70229D7D1802212047C
S1130DF0094B5A610529D7D18022D203064B5A6187
S1130E000829D7D180225204034B5A61D8E7C0463F
S1130E103D0D0000FD100000004400410022430885
S1130E208B4274D303098B425FD3030A8B4244D3AE
S1130E30030B8B4228D3030C8B420DD3FF220902F0
S1130E4012BA030C8B4202D31212090265D0030BAF
S1130E508B4219D300E0090AC30B8B4201D3CB03A5
S1130E60C01A5241830B8B4201D38B03C01A5241E7
S1130E70430B8B4201D34B03C01A5241030B8B42E9
S1130E8001D30B03C01A5241C30A8B4201D3CB02D4
S1130E90C01A5241830A8B4201D38B02C01A5241B9
S1130EA0430A8B4201D34B02C01A5241030A8B42BC
S1130EB001D30B02C01A5241CDD2C3098B4201D3D4
S1130EC0CB01C01A524183098B4201D38B01C01A52
S1130ED0524143098B4201D34B01C01A52410309C9
S1130EE08B4201D30B01C01A5241C3088B4201D378
S1130EF0CB00C01A524183088B4201D38B00C01A25
S1130F00524143088B4201D34B00C01A5241411A4B
S1130F1000D20146524110467047FFE701B5002058
S1130F2000F0F0F802BDC0460029F7D076E770471C
S1130F3003460B437FD4002243088B4274D3030936
S1130F408B425FD3030A8B4244D3030B8B4228D3D7
S1130F50030C8B420DD3FF22090212BA030C8B42FD
S1130F6002D31212090265D0030B8B4219D300E09D
S1130F70090AC30B8B4201D3CB03C01A5241830B22
S1130F808B4201D38B03C01A5241430B8B4201D3D2
S1130F904B03C01A5241030B8B4201D30B03C01AFB
S1130FA05241C30A8B4201D3CB02C01A5241830A75
S1130FB08B4201D38B02C01A5241430A8B4201D3A4
S1130FC04B02C01A5241030A8B4201D30B02C01ACE
S1130FD05241CDD2C3098B4201D3CB01C01A524135
S1130FE083098B4201D38B01C01A524143098B42BE
S1130FF001D34B01C01A524103098B4201D30B01A7
S1131000C01A5241C3088B4201D3CB00C01A5241CB
S113101083088B4201D38B00C01A524143088B4290
S113102001D34B00C01A5241411A00D20146524129
S1131030104670475DE0CA0F00D04942031000D348
S11310404042534000229C4603098B422DD3030A9D
S11310508B4212D3FC22890112BA030A8B420CD3AD
S1131060890192118B4208D3890192118B4204D3D6
S113107089013AD0921100E08909C3098B4201D356
S1131080CB01C01A524183098B4201D38B01C01A90
S1131090524143098B4201D34B01C01A5241030907
S11310A08B4201D30B01C01A5241C3088B4201D3B6
S11310B0CB00C01A524183088B4201D38B00C01A63
S11310C05241D9D243088B4201D34B00C01A52413A
S11310D0411A00D20146634652415B10104601D3C7
S11310E04042002B00D54942704763465B1000D351
S11310F0404201B5002000F005F802BD0029F8D0F7
S113110016E770477047C04670B500260C4D0D4C6D
S1131110641BA410A64209D1002600F033F90A4D3D
S11311200A4C641BA410A64205D170BDB300EB5851
S113113098470136EEE7B300EB5898470136F2E7DB
S1131140901300009013000090130000941300000B
S1131150154B10B51C68A36B002B15D1182000F09B
S113116033F8124BA0630380114B01224380114BCF
S11311708380114BC380114B0381052343810633C4
S11311808381002302614361A46B0D4A2069616974
S11311900C4B00F095F8012200238018594120617E
S11311A061614800400810BD7C0000200E3300003F
S11311B0CDABFFFF341200006DE6FFFFECDEFFFF56
S11311C02D7F954C2DF4515810B5034B0100186830
S11311D000F004F810BDC0467C000020032370B565
S11311E0CD1C9D43083506000C2D1ED20C25A942AA
S11311F01DD8300000F062F8254A14682100002947
S113120019D1244C2368002B03D1300000F044F89A
S113121020602900300000F03FF8431C2CD10C233F
S11312203000336000F04BF803E0002DDFDA0C23CC
S11312303360002070BD0B685B1B1AD40B2B03D9E1
S11312400B60CC18256003E08C420ED163681360F8
S1131250300000F034F8200007220B30231D9043A7
S1131260C31AE7D05A42E250E4E74B6863600C00CB
S1131270EEE70C004968C2E70323C41C9C43A04268
S1131280E0D0211A300000F007F8431CDAD1C6E799
S11312902401002028010020002370B5064C05001D
S11312A008002360FFF7AAFA431C03D12368002B2C
S11312B000D02B6070BDC0463001002070477047DD
S11312C0F0B5CE46474615042D0C2E0080B5070414
S11312D0140C3F0C9946030C7E435D436743634300
S11312E07F19340CE4199C46A54203D980235B0280
S11312F09846C4444B46514343433604360C250CAC
S113130024046544A4195918491920000CBC9046BA
S11313109946F0BDCA010000C6010000C6010000E4
S11313202C0200002C020000DE010000D0010000AD
S1131330E40100001A020000B4020000940200005C
S11313409402000020030000A6020000C202000074
S113135098020000D002000010030000BC0C000042
S1131360C60C0000D00C0000DA0C0000E40C0000F5
S1131370EE0C0000F80C0000020D00000C0D000043
S1131380160D0000F8B5C046F8BC08BC9E46704770
S1131390B5000000F8B5C046F8BC08BC9E467047CE
S10713A08D000000B8
S11313A40100000007000000790900000D0A000094
S11313B42D0A0000810D0000C10A0000350B000055
S11313C4A10C000001000000000000001400000053
S11313D401000000010000000A00000002000000F7
S11313E402000000140000000300000003000000D9
S11313F43200000004000000040000002D0000007E
S11314040500000005000000500000000600000074
S113141406000000320000000000000080000020EC
S113142400000000000000000000000000000000B4
S113143400000000000000000000000000000000A4
S11314440000000000000000000000000000000094
S11314540000000000000000000000000000000084
S11314640000000000000000000000000000000074
S11314740000000000000000000000000000000064
S903072DC8
